{"abi":[{"type":"function","name":"add","inputs":[{"name":"numero1","type":"uint256","internalType":"uint256"},{"name":"numero2","type":"uint256","internalType":"uint256"}],"outputs":[{"name":"","type":"uint256","internalType":"uint256"}],"stateMutability":"nonpayable"},{"type":"function","name":"get","inputs":[],"outputs":[{"name":"","type":"uint256","internalType":"uint256"}],"stateMutability":"view"}],"bytecode":{"object":"0x6080604052348015600e575f5ffd5b506101dd8061001c5f395ff3fe608060405234801561000f575f5ffd5b5060043610610034575f3560e01c80636d4ce63c14610038578063771602f714610056575b5f5ffd5b610040610086565b60405161004d91906100c2565b60405180910390f35b610070600480360381019061006b9190610109565b61008e565b60405161007d91906100c2565b60405180910390f35b5f5f54905090565b5f818361009b9190610174565b5f819055505f54905092915050565b5f819050919050565b6100bc816100aa565b82525050565b5f6020820190506100d55f8301846100b3565b92915050565b5f5ffd5b6100e8816100aa565b81146100f2575f5ffd5b50565b5f81359050610103816100df565b92915050565b5f5f6040838503121561011f5761011e6100db565b5b5f61012c858286016100f5565b925050602061013d858286016100f5565b9150509250929050565b7f4e487b71000000000000000000000000000000000000000000000000000000005f52601160045260245ffd5b5f61017e826100aa565b9150610189836100aa565b92508282019050808211156101a1576101a0610147565b5b9291505056fea2646970667358221220dece37918706d6ac5fddf44a342e2351e04a031d12cb36d60c44b19dd15fb95a64736f6c63430008210033","linkReferences":{}},"methodIdentifiers":{"add(uint256,uint256)":"771602f7","get()":"6d4ce63c"},"id":0}